S0100000506F73744C4142322E737265636D
S11300000C943C000C9459000C9459000C94590025
S11300100C9459000C9459000C9459000C945900F8
S11300200C9459000C9459000C9459000C945900E8
S11300300C9459000C9459000C9459000C945900D8
S11300400C9459000C9459000C9408040C94590015
S11300500C9459000C94BB030C9459000C94590053
S11300600C9459000C945900B30084008A00900049
S113007096009C00A200A80011241FBECFEFD8E078
S1130080DEBFCDBF11E0A0E0B1E0E0EBFDE002C0D7
S113009005900D92A633B107D9F721E0A6E3B1E0AC
S11300A001C01D92AE33B207E1F70E9462030C94C3
S11300B0D6060C9400000F9310927C00811106C0A8
S11300C0ACE7B0E08C918F7D8C9305C0ACE7B0E0D9
S11300D08C9180628C93613019F0653039F00BC0DB
S11300E0ACE7B0E08C91806C8C9305C0ACE7B0E0D9
S11300F08C9180648C9350E04830510578F5FA0176
S1130100EC5CFF4F0C94AD06ECE7F0E0808181607D
S1130110808329C0ECE7F0E080818260808323C083
S1130120ECE7F0E08081836080831DC0ECE7F0E0C1
S113013080818460808317C0ECE7F0E08081856073
S1130140808311C0ECE7F0E08081866080830BC07F
S1130150ECE7F0E080818760808305C0ECE7F0E0A5
S113016080818660808310927A00211106C0EAE7BC
S1130170F0E08081877F808305C0EAE7F0E080813A
S1130180886080830031D9F038F4043061F008309D
S113019081F0023061F530C00034E9F0003809F133
S11301A0003229F512C0EAE7F0E0808182608083A2
S11301B023C0EAE7F0E08081836080831DC0EAE722
S11301C0F0E080818460808317C0EAE7F0E08081FA
S11301D08560808311C0EAE7F0E0808186608083D7
S11301E00BC0EAE7F0E080818760808305C0EAE71E
S11301F0F0E0808187608083EAE7F0E08081806CB2
S113020080830F91089595B19C7F282F2370922BA2
S113021095B99BB193708C7F892B8BB9089598B154
S11302209E7F98B90E94030188B1826088B98FE9E2
S11302309FE00197F1F700C0000088B18D7F88B975
S11302408FE99FE00197F1F700C00000089588B19D
S11302508E7F88B988B18D7F88B92FEF89EF90E0C0
S1130260215080409040E1F700C0000080E30E94EC
S11302700F018FE19EE40197F1F700C0000080E3D5
S11302800E940F018FE19EE40197F1F700C0000086
S113029080E30E940F018FE39CE90197F1F700C00E
S11302A0000088E30E940F018CE00E940F0181E0AE
S11302B00E940F0186E00E940F010895811105C07C
S11302C080E8860F0E940F010895813021F480ECAC
S11302D0860F0E940F01089581E00E940F01089586
S11302E098B1916098B90E94030188B1826088B97D
S11302F08FE99FE00197F1F700C0000088B18D7F7E
S113030088B98FE99FE00197F1F700C000000895D4
S11303100F931F93CF93DF938C01C0E0D0E003C011
S11303200E9470012196F801EC0FFD1F808181115C
S1130330F7CFDF91CF911F910F9108950F93F89408
S11303408AB18C6F8AB91BB884B1836084B985B1D2
S11303508C7F85B987B1836087B988B18C7F88B970
S11303600E9427010E946C014091180100E821E0DD
S113037065E081E00E945B000E94530478940F9131
S113038008958F929F92AF92BF92CF92DF92EF9295
S1130390FF920F931F93CF93DF93EC0170E080E003
S11303A090E00E947E0520E030E040EA50E40E94A4
S11303B00A0620E030E04FE753E40E94DB044B01DF
S11303C05C010E944D056B017C018B0180E090E093
S11303D00E947C059B01AC01C501B4010E946E041E
S11303E020E030E048EC52E40E940A060E944D05E9
S11303F04B015C010A30110540F580E38C0D8883C4
S11304008EE289839401ADECBCEC0E94B306AC018E
S113041056954795569547955695479580E3840F8D
S11304208A83CA01880F991F440F551F440F551F13
S1130430440F551F480F591FC401841B950B805D41
S11304408B8386E58C831D8241C09601ADECBCECA8
S11304500E94B306AC015695479556954795569517
S1130460479580E3840F8883CA01880F991F440F3E
S1130470551F440F551F440F551F480F591FC601E0
S1130480841B950B805D89838EE28A8394010E948C
S1130490B306AC015695479556954795569547959D
S11304A080E3840F8B83CA01880F991F440F551F63
S11304B0440F551F440F551F480F591FC401841B77
S11304C0950B805D8C8386E58D831E82DF91CF91B1
S11304D01F910F91FF90EF90DF90CF90BF90AF905E
S11304E09F908F900895CF92DF92EF92FF92CF93D7
S11304F0DF93EC01262F30E0AFEFB3E00E94B306A8
S11305002FEF30E040E050E00E948B0669017A0151
S1130510369527953695279536952795A5ECB0E21F
S11305200E94B306929582958F7089279F708927C0
S1130530805D888396013695279536952795ABE798
S1130540B4E10E94B306AC01569547959A01ADEC0F
S1130550BCEC0E94B30696958795969587959695DB
S113056087959C01220F331F880F991F880F991FAD
S1130570880F991F820F931F9A01281B390BC901F9
S1130580805D898396010E94B306AC015695479518
S113059056954795569547959A010E94B3069695A8
S11305A0879596958795969587959C01220F331F7D
S11305B0880F991F880F991F880F991F820F931F07
S11305C09A01281B390BC901805D8A83CA01880FEF
S11305D0991F440F551F440F551F440F551F480FB3
S11305E0591FC601841B950B805D8B831C82DF9190
S11305F0CF91FF90EF90DF90CF900895CF93DF934A
S1130600FC019B01CB0164E670E00E947706605D0B
S11306106083CAE0D0E0C901BE010E947706282F9A
S1130620CB01BE010E947706805D8183205D228319
S11306301382DF91CF9108950E946C0160E080E005
S11306400E945E0189E191E00E94880166E080E0F9
S11306500E945E018DE191E00E9488016BE080E0E0
S11306600E945E0181E291E00E94880160913B0159
S113067080E191E00E94C10160913D0188E091E038
S11306800E9473026091360170E080E091E00E9464
S1130690FE0260E081E00E945E0180E191E00E9440
S11306A0880166E081E00E945E0188E091E00E949A
S11306B088016BE081E00E945E0180E091E00E948D
S11306C0880108950E949E010E941C0390913B01A1
S11306D080913A01981739F080913B0180933A0157
S11306E00E941C030CC090913D0180913701981722
S11306F031F080913D01809337010E941C03809169
S11307003901813019F0823031F02BC00E941C0372
S11307101092390126C085E291E00E94400480E1F4
S113072091E00E9440048AE291E00E9440048CE23D
S113073091E00E94400488E091E00E9440048AE233
S113074091E00E94400481E391E00E94400480E033
S113075091E00E9440048AE291E00E9440041092D9
S113076039012FEF80E792E0215080409040E1F77B
S113077000C00000ABCF1F920F920FB60F9211244E
S11307800F932F933F934F935F936F937F938F9325
S11307909F93AF93BF93EF93FF93809179008093DE
S11307A0380180911801823019F0833031F009C08A
S11307B08091380180933B0104C08091380180937B
S11307C03D0180911801833020F082E0809318016C
S11307D005C0809118018F5F809318014091180122
S11307E000E821E065E081E00E945B00FF91EF9169
S11307F0BF91AF919F918F917F916F915F914F9135
S11308003F912F910F910F900FBE0F901F9018954D
S11308101F920F920FB60F9211248F938091C600EE
S113082080933C0180913C018B3249F480913601E4
S11308308F5F8093360181E08093390114C08091E9
S11308403C018D3249F48091360181508093360108
S113085081E08093390107C080913C01813319F410
S113086082E0809339018F910F900FBE0F901F90FB
S113087018959091C00095FFFCCF8093C600089511
S11308800F931F93CF938C01C0E003C00E943904DF
S1130890CF5FF801EC0FF11D80818111F7CFCF916B
S11308A01F910F9108958AB182608AB98AB18E7FAF
S11308B08AB91092C000E1ECF0E01082808188696E
S11308C08083E2ECF0E0108280818660808387E69A
S11308D090E09093C5008093C40008955058BB27BE
S11308E0AA270E9486040C94D0050E94C20538F001
S11308F00E94C90520F039F49F3F19F426F40C94A2
S1130900BF050EF4E095E7FB0C94B905E92F0E94AE
S1130910E10558F3BA17620773078407950720F0B7
S113092079F4A6F50C9403060EF4E0950B2EBA2F79
S1130930A02D0B01B90190010C01CA01A0011124E1
S1130940FF27591B99F0593F50F4503E68F11A168D
S1130950F040A22F232F342F4427585FF3CF46951E
S113096037952795A795F0405395C9F77EF41F1640
S1130970BA0B620B730B840BBAF09150A1F0FF0F0A
S1130980BB1F661F771F881FC2F70EC0BA0F621FF6
S1130990731F841F48F4879577956795B795F795E6
S11309A09E3F08F0B0CF9395880F08F09927EE0F7B
S11309B09795879508950E94EF040C94D0050E94A2
S11309C0C90558F00E94C20540F029F45F3F29F0A0
S11309D00C94B90551110C9404060C94BF050E94A3
S11309E0E10568F39923B1F3552391F3951B550B56
S11309F0BB27AA2762177307840738F09F5F5F4FEE
S1130A00220F331F441FAA1FA9F335D00E2E3AF02C
S1130A10E0E832D091505040E695001CCAF72BD044
S1130A20FE2F29D0660F771F881FBB1F2617370795
S1130A304807AB07B0E809F0BB0B802DBF01FF27C7
S1130A4093585F4F3AF09E3F510578F00C94B905E6
S1130A500C9404065F3FE4F3983ED4F386957795AF
S1130A606795B795F7959F5FC9F7880F911D969580
S1130A70879597F90895E1E0660F771F881FBB1FDC
S1130A80621773078407BA0720F0621B730B840B89
S1130A90BA0BEE1F88F7E09508950E94E90588F0E7
S1130AA09F5798F0B92F9927B751B0F0E1F0660F2E
S1130AB0771F881F991F1AF0BA95C9F714C0B1306F
S1130AC091F00E940306B1E008950C940306672F89
S1130AD0782F8827B85F39F0B93FCCF3869577959E
S1130AE06795B395D9F73EF4909580957095619587
S1130AF07F4F8F4F9F4F0895E89409C097FB3EF4B2
S1130B0090958095709561957F4F8F4F9F4F992356
S1130B10A9F0F92F96E9BB279395F69587957795D4
S1130B206795B795F111F8CFFAF4BB0F11F460FF94
S1130B301BC06F5F7F4F8F4F9F4F16C0882311F0EC
S1130B4096E911C0772321F09EE8872F762F05C000
S1130B50662371F096E8862F70E060E02AF09A959B
S1130B60660F771F881FDAF7880F9695879597F990
S1130B70089597F99F6780E870E060E008959FEF1B
S1130B8080EC089500240A94161617061806090620
S1130B90089500240A9412161306140605060895EF
S1130BA0092E0394000C11F4882352F0BB0F40F477
S1130BB0BF2B11F460FF04C06F5F7F4F8F4F9F4FB7
S1130BC0089557FD9058440F551F59F05F3F71F039
S1130BD04795880F97FB991F61F09F3F79F08795A0
S1130BE00895121613061406551FF2CF4695F1DF29
S1130BF008C0161617061806991FF1CF86957105B9
S1130C00610508940895E894BB2766277727CB01EC
S1130C1097F908950E941D060C94D0050E94C20500
S1130C2038F00E94C90520F0952311F00C94B90501
S1130C300C94BF0511240C9404060E94E10570F382
S1130C40959FC1F3950F50E0551F629FF001729F6D
S1130C50BB27F00DB11D639FAA27F00DB11DAA1F7C
S1130C60649F6627B00DA11D661F829F2227B00DC9
S1130C70A11D621F739FB00DA11D621F839FA00D54
S1130C80611D221F749F3327A00D611D231F849FA4
S1130C90600D211D822F762F6A2F11249F575040FB
S1130CA09AF0F1F088234AF0EE0FFF1FBB1F661F76
S1130CB0771F881F91505040A9F79E3F510580F03F
S1130CC00C94B9050C9404065F3FE4F3983ED4F306
S1130CD0869577956795B795F795E7959F5FC1F7E3
S1130CE0FE2B880F911D9695879597F9089597FB8C
S1130CF0072E16F4009407D077FD09D00E94C2068F
S1130D0007FC05D03EF4909581959F4F089570950A
S1130D1061957F4F0895A1E21A2EAA1BBB1BFD010A
S1130D200DC0AA1FBB1FEE1FFF1FA217B307E407C6
S1130D30F50720F0A21BB30BE40BF50B661F771F1E
S1130D40881F991F1A9469F76095709580959095FE
S1130D509B01AC01BD01CF010895EE0FFF1F05906B
S1130D60F491E02D0994A29FB001B39FC001A39F09
S1130D70700D811D1124911DB29F700D811D1124D0
S1130D80911D0895AA1BBB1B51E107C0AA1FBB1FDD
S1130D90A617B70710F0A61BB70B881F991F5A9503
S1130DA0A9F780959095BC01CD010895F894FFCFE3
S1130DB030303030000000003030303000000000AF
S1130DC030303030000000000253313A0053323AE0
S1130DD00053333A0053313A20000A0053323A2088
S1090DE00053333A200029
S9030000FC
