S00C00004C4142332E7372656316
S11300000C943B000C9458000C9458000C94580029
S11300100C9458000C9458000C9458000C945800FC
S11300200C9458000C9458000C9458000C945800EC
S11300300C9458000C9458000C9458000C945800DC
S11300400C9458000C949A000C94BF000C94580023
S11300500C9458000C9458000C9458000C945800BC
S11300600C9458000C94580015011C0123012D0117
S1130070370141014B0111241FBECFEFD8E0DEBF91
S1130080CDBF11E0A0E0B1E0E4EAF3E002C00590E6
S11300900D92A031B107D9F721E0A0E1B1E001C090
S11300A01D92A431B207E1F70E9465000C94D001BF
S11300B00C940000F8940E94AF0122E041E060E05B
S11300C081E00E94C900789408950E945A0081E654
S11300D00E94550180911001813091F480E091E0FB
S11300E00E945E01809112010E94710187E091E0FB
S11300F00E945E0182E60E9455011092100113C015
S1130100823089F489E091E00E945E0180911101BE
S11301100E94710187E091E00E945E0181E60E94E5
S11301205501109210018FE39CE90197F1F700C08B
S11301300000D0CF1F920F920FB60F9211248F930D
S113014080911301811109C08EB58093120181E061
S113015080931301809310010CC0809113018130AE
S113016041F48EB5809311011092130182E08093C3
S113017010018F910F900FBE0F901F9018951F9232
S11301800F920FB60F9211240F900FBE0F901F9075
S11301901895813021F48CB580688CBD03C08CB572
S11301A08F778CBD613021F48CB580628CBD03C027
S11301B08CB58F7D8CBD413069F48CB580618CBD6C
S11301C084B18F7E84B984B18C6284B985B1846032
S11301D085B909C08CB58F7E8CBD84B1806184B92A
S11301E084B1837D84B9413009F05BC023FF04C02E
S11301F08CB588608CBD03C08CB5877F8CBD24FF13
S113020004C08CB584608CBD03C08CB58B7F8CBD61
S1130210E22FE7708E2F90E08730910508F041C0FF
S1130220FC01EC5CFF4F0C94CA018DB581608DBD5F
S11302308CB58C7F8CBD35C08DB58E7F8DBD8CB556
S11302408C7F8CBD2EC08DB581608DBD8CB58D7FAE
S11302508CBD8CB581608CBD24C08DB58E7F8DBD69
S11302608CB58D7F8CBD8CB581608CBD1AC08DB56D
S113027081608DBD8CB58E7F8CBD8CB582608CBD4C
S113028010C08DB58E7F8DBD8CB58E7F8CBD8CB529
S113029082608CBD06C08DB58E7F8DBD8CB58360AC
S11302A08CBD8CB580648CBD08958EBD08959091ED
S11302B0C00095FFFCCF8093C60008950F931F9351
S11302C0CF938C01C0E003C00E945701CF5FF801B7
S11302D0EC0FF11D80818111F7CFCF911F910F9108
S11302E008951F93CF93DF9300D000D0CDB7DEB72E
S11302F081111DC080E30E94570129C0E1E0F0E0B4
S1130300EC0FFD1FE10FF11D9DEC899F912D112430
S1130310969596959695392F330F232F220F220FFA
S1130320230F821B805D8083892F1F5F01C010E033
S11303308111E4CF0AC01150E1E0F0E0EC0FFD1FA1
S1130340E10FF11D80810E9457011111F4CF0F902C
S11303500F900F900F90DF91CF911F9108958AB164
S113036082608AB98AB18E7F8AB91092C000E1ECAA
S1130370F0E01082808188698083E2ECF0E01082F2
S113038080818660808387E690E09093C5008093A7
S1130390C4000895EE0FFF1F0590F491E02D099419
S10703A0F894FFCFFB
S11303A4504F54313A20000A00504F54323A20003E
S9030000FC
