:100000000C9434000C9451000C9451000C940C018D
:100010000C941D010C9451000C9451000C9451004F
:100020000C9451000C9451000C9451000C9451000C
:100030000C9451000C9451000C9451000C945100FC
:100040000C94DF000C9451000C9451000C9451005E
:100050000C9451000C9451000C9451000C945100DC
:100060000C9451000C94510011241FBECFEFD8E026
:10007000DEBFCDBF11E0A0E0B1E0E2E7F2E002C0F8
:1000800005900D92A830B107D9F721E0A8E0B1E0C2
:1000900001C01D92AE30B207E1F70E94AA000C9495
:1000A00037010C9400009093090180930801089592
:1000B0008A3050F4A0910801B0910901E82FF0E0D6
:1000C000EF5FFE4F80818C93089514BC85E085BD61
:1000D0008CE086BDEEE6F0E080818160808308954B
:1000E000F894E1E6F0E080E8808384E0808384B1E6
:1000F0008F6084B984B18F7C84B985B1806385B900
:1001000085B1807F85B9E8E6F0E0808181608083F9
:10011000ABE6B0E08C9180638C9387B18F7C87B91C
:1001200087B18F6087B988B1806388B988B1807FD3
:1001300088B9808182608083ECE6F0E08081806312
:1001400080838FEF8AB91BB81092C1000E946500AE
:10015000789408950E9470008BE290E00E94530012
:10016000809100010E945800809100010E94580077
:1001700080910D018230C1F745B120910B0130E033
:100180002150310981E090E0BC0102C0660F771F69
:100190002A95E2F79B01342F307F232B25B948B1F4
:1001A00020910A0130E02150310902C0880F991FC7
:1001B0002A95E2F7942F907F892B88B9D5CF1F928B
:1001C0000F920FB60F9211248F938CE086BD809111
:1001D0000C018F5F80930C0180910C018430B0F092
:1001E00010920C0180910001882381F080910D0113
:1001F000813061F4809100018150809300018091F1
:100200000001811103C082E080930D018F910F9056
:100210000FBE0F901F9018951F920F920FB60F925E
:1002200011248F931C9903C081E080930D018F915D
:100230000F900FBE0F901F9018951F920F920FB640
:100240000F9211248F93349905C080910B018F5F19
:1002500080930B01359905C080910A018F5F8093CF
:100260000A018F910F900FBE0F901F901895F89470
:02027000FFCFBE
:08027200057E225B6B276D0085
:00000001FF
