:100000000C9434000C9451000C9451000C945A013F
:100010000C948A010C9451000C9451000C945100E2
:100020000C9451000C9451000C9451000C9451000C
:100030000C9451000C9451000C9451000C945100FC
:100040000C9438010C9451000C9451000C94510004
:100050000C9451000C9451000C9451000C945100DC
:100060000C9451000C94510011241FBECFEFD8E026
:10007000DEBFCDBF11E0A0E0B1E0ECE4F3E002C0F0
:1000800005900D92A830B107D9F721E0A8E0B1E0C2
:1000900001C01D92AF30B207E1F70E94AA000C9494
:1000A000A4010C9400009093090180930801089525
:1000B0008A3050F4A0910801B0910901E82FF0E0D6
:1000C000EF5FFE4F80818C93089514BC85E085BD61
:1000D0008CE086BDEEE6F0E080818160808308954B
:1000E000F894E1E6F0E080E8808384E0808384B1E6
:1000F0008F6084B984B18F7C84B985B1806385B900
:1001000085B1807F85B9E8E6F0E0808181608083F9
:10011000ABE6B0E08C9180638C9387B18F7C87B91C
:1001200087B18F6087B988B1806388B988B1807FD3
:1001300088B9808182608083ECE6F0E08081806312
:1001400080838FEF8AB91BB81092C1000E946500AE
:10015000789408950E9470008BE290E00E94530012
:10016000809100010E94580080910E01823080F43D
:10017000809100010E945800809100018111F4CF0C
:10018000809100010E94580082E080930E01ECCF24
:1001900080910E01823009F04AC080910C018111DA
:1001A00004C085B1807F85B91CC080910C01882373
:1001B000C1F045B120910C0130E02150310981E0BE
:1001C00090E002C0880F991F2A95E2F7942F907F44
:1001D000892B85B980910C01843019F483E08093D8
:1001E0000E0180910C01811104C085B1807F85B919
:1001F000BBCF80910B01882309F4B6CF48B1209181
:100200000B0130E02150310981E090E002C0880FFD
:10021000991F2A95E2F7942F907F892B88B98091B6
:100220000B01843009F0A0CF80930E019DCF809107
:100230000E01833061F488B1807F88B985B18F6009
:1002400085B981E080930A010E9458008DCF80918A
:100250000E01843009F088CF85B1807F85B988B1DF
:100260008F6088B982E080930A010E9458007CCF99
:100270001F920F920FB60F9211248F938CE086BDC0
:1002800080910D018F5F80930D0180910D0184306D
:1002900058F010920D0180910E01813029F4809167
:1002A00000018150809300018F910F900FBE0F903D
:1002B0001F9018951F920F920FB60F9211248F93D3
:1002C00080910E01811106C01C991EC081E08093AF
:1002D0000E011AC080910E01813069F480910001F5
:1002E000882391F01C9910C081E080930E0185E075
:1002F0008093000109C080910E01853029F41C997A
:1003000003C081E080930E018F910F900FBE0F907C
:100310001F9018951F920F920FB60F9211248F9372
:10032000349905C080910C018F5F80930C01359941
:1003300005C080910B018F5F80930B018F910F900F
:0C0340000FBE0F901F901895F894FFCF8F
:08034C00057E225B6B276D00AA
:00000001FF
