:100000000C9434000C9451000C9451000C94870013
:100010000C94B6000C9451000C9451000C945100B7
:100020000C9451000C9451000C9451000C9451000C
:100030000C9451000C9451000C9451000C945100FC
:100040000C9465000C9451000C9451000C945100D8
:100050000C9451000C9451000C9451000C945100DC
:100060000C9451000C94510011241FBECFEFD8E026
:10007000DEBFCDBF11E0A0E0B1E0E6EAF3E002C0F0
:1000800005900D92A830B107D9F721E0A8E0B1E0C2
:1000900001C01D92A131B207E1F70E9439010C9411
:1000A000D1010C94000090930901809308010895F8
:1000B0008A3050F4A0910801B0910901E82FF0E0D6
:1000C000EF5FFE4F80818C9308951F920F920FB6C1
:1000D0000F9211248F938CE086BD80910F018F5F6A
:1000E00080930F0180910F01843058F010920F011E
:1000F00080911001813029F480910001815080931A
:1001000000018F910F900FBE0F901F9018951F92B6
:100110000F920FB60F9211248F93809110018111CD
:1001200006C01C991DC081E08093100119C0809108
:100130001001813051F480910001882389F01C99CD
:100140000FC081E0809310010BC0809110018330BB
:1001500021F080911001843019F41C9B1092100141
:100160008F910F900FBE0F901F9018951F920F92B6
:100170000FB60F9211248F9380911001823071F588
:1001800034990DC080910C01811109C081E08093E8
:100190000C0180910E018F5F80930E0108C0349B8B
:1001A00006C080910C01813011F410920C01359938
:1001B0000DC080910B01811109C081E080930B017A
:1001C00080910D018F5F80930D0108C0359B06C0A3
:1001D00080910B01813011F410920B018F910F90DF
:1001E0000FBE0F901F90189514BC85E085BD8CE064
:1001F00086BDEEE6F0E08081816080830895F8940A
:10020000E1E6F0E080E8808384E0808384B18F6061
:1002100084B984B18F7C84B985B1806385B985B197
:10022000807F85B9E8E6F0E0808181608083ABE67D
:10023000B0E08C9180638C9387B18F7C87B987B154
:100240008F6087B988B1806388B988B1807F88B9A9
:10025000808182608083ECE6F0E08081806380832F
:100260008FEF8AB91BB81092C1000E94F4007894F5
:1002700008950E94FF008BE290E00E94530080915D
:1002800000010E94580080911001823071F128F421
:10029000882351F08130C9F081C0833009F466C0F1
:1002A000843009F46FC07AC085E0809300018091AA
:1002B00000010E94580010920E0110920D0188B1A9
:1002C000807F88B985B1807F85B9809100010E94C7
:1002D0005800809100018111D6CF809100010E94C9
:1002E000580082E080931001CECF80910E018111E1
:1002F00004C085B1807F85B918C045B120910E0139
:1003000030E02150310981E090E002C0880F991F50
:100310002A95E2F7942F907F892B85B980910E0161
:10032000843019F483E08093100180910D018111D4
:1003300004C088B1807F88B9A6CF48B120910D0153
:1003400030E02150310981E090E002C0880F991F10
:100350002A95E2F7942F907F892B88B980910D011F
:10036000843009F090CF809310018DCF88B1807FC9
:1003700088B985B18F6085B981E080930A010E94B8
:10038000580081CF85B1807F85B988B18F6088B9E9
:1003900082E080930A010E94580075CF10921001EC
:0603A00072CFF894FFCFBC
:0803A600057E225B6B276D0050
:00000001FF
