S01700004763634170706C69636174696F6E312E737265635B
S11300000C9434000C9451000C9451000C9487000F
S11300100C94D5000C9451000C9451000C94510094
S11300200C9451000C9451000C9451000C94510008
S11300300C9451000C9451000C9451000C945100F8
S11300400C9465000C9451000C9451000C945100D4
S11300500C9451000C9451000C9451000C945100D8
S11300600C9451000C94510011241FBECFEFD8E022
S1130070DEBFCDBF11E0A0E0B1E0E8E7F3E002C0ED
S113008005900D92A830B107D9F721E0A8E0B1E0BE
S113009001C01D92AF30B207E1F70E9438010C9401
S11300A0BA010C940000909309018093080108950B
S11300B08A3050F4A0910801B0910901E82FF0E0D2
S11300C0EF5FFE4F80818C9308951F920F920FB6BD
S11300D00F9211248F938CE086BD80910D018F5F68
S11300E080930D0180910D01843058F010920D0120
S11300F080910E01813029F4809100018150809318
S113010000018F910F900FBE0F901F9018951F92B2
S11301100F920FB60F9211242F933F934F935F9337
S11301206F937F938F939F93AF93BF93EF93FF93BB
S113013080910E01811106C01C9926C081E0809334
S11301400E0122C080910E01813089F4809100015A
S11301508823D1F01C9918C081E080930E0185E0BA
S113016080930001809100010E9458000DC080918D
S11301700E01833021F080910E01843029F41C9902
S113018003C081E080930E01FF91EF91BF91AF9185
S11301909F918F917F916F915F914F913F912F919B
S11301A00F900FBE0F901F9018951F920F920FB6CD
S11301B00F9211248F9380910E01823071F434993F
S11301C005C080910C018F5F80930C01359905C0A7
S11301D080910B018F5F80930B018F910F900FBE65
S11301E00F901F90189514BC85E085BD8CE086BDEA
S11301F0EEE6F0E08081816080830895F894E1E682
S1130200F0E080E8808384E0808384B18F6084B9E7
S113021084B18F7C84B985B1806385B985B1807FD1
S113022085B9E8E6F0E0808181608083ABE6B0E0E8
S11302308C9180638C9387B18F7C87B987B18F60F1
S113024087B988B1806388B988B1807F88B9808193
S113025082608083ECE6F0E08081806380838FEFAE
S11302608AB91BB81092C1000E94F30078940895D3
S11302700E94FE008BE290E00E94530080910001F6
S11302800E94580080910E018230C1F038F0833012
S113029009F455C0843009F45EC069C0809100013E
S11302A00E945800809100018111ECCF80910001DF
S11302B00E94580082E080930E01E4CF80910C01EB
S11302C0811104C085B1807F85B918C045B12091E2
S11302D00C0130E02150310981E090E002C0880F28
S11302E0991F2A95E2F7942F907F892B85B98091E5
S11302F00C01843019F483E080930E0180910B018A
S1130300811104C088B1807F88B9BCCF48B12091E5
S11303100B0130E02150310981E090E002C0880FE8
S1130320991F2A95E2F7942F907F892B88B98091A1
S11303300B01843009F0A6CF80930E01A3CF88B1BE
S1130340807F88B985B18F6085B981E080930A0187
S11303500E94580097CF85B1807F85B988B18F609E
S113036088B982E080930A010E9458008BCF1092D2
S10B03700E0188CFF894FFCFC1
S10B0378057E225B6B276D007A
S9030000FC
