:100000000C9434000C9451000C9451000C94510049
:100010000C9470010C9451000C9451000C945100FC
:100020000C9451000C9451000C9451000C9451000C
:100030000C9451000C9451000C9451000C945100FC
:100040000C9451000C9451000C9451000C945100EC
:100050000C9451000C9451000C9451000C945100DC
:100060000C94AB010C94510011241FBECFEFD8E0CB
:10007000DEBFCDBF11E0A0E0B1E0EAEAF6E002C0E9
:1000800005900D92A437B107D9F721E0A4E7B1E0BC
:1000900001C01D92AA38B207E1F70E94F2000C9449
:1000A00053030C94000097B19F7C97B9880F8093FD
:1000B000BA0085E48093BC000895109285001092E8
:1000C000840088B18D7F88B985E38A95F1F70000B7
:1000D00088B1826088B985E38A95F1F7000088B11C
:1000E0008D7F88B908958AB182608AB98AB18E7F7E
:1000F0008AB91092C00088E98093C10086E080939D
:10010000C20087E690E09093C5008093C4000895F4
:10011000F8948AB184688AB98BB18B778BB987B12F
:10012000826087B987B18E7F87B988B18D7F88B9A2
:100130001092800082E080938100E8E6F0E0808108
:1001400082608083ECE6F0E08081816080831092A1
:10015000780180E30E9453000E9473007894089510
:10016000FB0199E2899F912D112492959F7020E3C4
:10017000290F2083282F34E6939F201911249DEC0A
:10018000299F212D1124269526952695205D2183D2
:10019000899F912D1124969596959695990F292FC3
:1001A000220F220F920F891B805D82831382089594
:1001B0009091C00095FFFCCF8093C60008950F93E7
:1001C0001F93CF938C01C0E003C00E94D800CF5F83
:1001D000F801EC0FF11D80818111F7CFCF911F91B4
:1001E0000F9108950E94880080917D01823529F445
:1001F00089B1846089B910927D0180917801811163
:100200000DC080910001882349F0309907C00E94F9
:100210005D0081E091E00E94DF00E6CF80917801EF
:10022000813049F483E191E00E94DF008BE291E0AC
:100230000E94DF00D9CF809178018230A9F686E450
:1002400091E00E94DF006091790170917A0180E075
:1002500090E00E94270220E030E040E05FE30E944F
:100260008D020E94F80160937701669527E4629FF2
:10027000212D112426952695269530E03093750181
:1002800020937401AFEFB0E00E94440320E931E015
:1002900040E050E00E942203822F2093760164E820
:1002A00071E00E94B00084E891E00E94DF0084E4E5
:1002B00091E00E94DF00109200012FEF8DEE92E09E
:1002C000215080409040E1F700C00000109278017A
:1002D00081E08093000184E691E00E94DF0084CFFA
:1002E0001F920F920FB60F9211242F933F938F936B
:1002F0009F93309B10C08091780181110CC0809138
:1003000084009091850090937C0180937B0181E033
:100310008093780117C0309915C0809178018130A1
:1003200089F4809184009091850020917B01309127
:100330007C01821B930B90937A018093790182E078
:10034000809378019F918F913F912F910F900FBED5
:100350000F901F9018951F920F920FB60F921124B5
:100360008F93EF93FF938091B9008C7F803A89F14E
:1003700058F48037A1F018F4803689F02EC0803808
:1003800091F0803981F029C0883BA9F018F4883AAF
:1003900091F023C0803CB9F0883CA9F01EC085ECE8
:1003A0008093BC001DC08091BB0080937D0185ECD3
:1003B0008093BC0015C0809176018093BB0085ECD2
:1003C0008093BC000DC0ECEBF0E0108285E48083EC
:1003D00007C085EC8093BC0003C085EC8093BC0013
:1003E000FF91EF918F910F900FBE0F901F90189576
:1003F0000E946C0288F09F5798F0B92F9927B75147
:10040000B0F0E1F0660F771F881F991F1AF0BA95B8
:10041000C9F714C0B13091F00E948602B1E008958E
:100420000C948602672F782F8827B85F39F0B93F80
:10043000CCF3869577956795B395D9F73EF490956B
:100440008095709561957F4F8F4F9F4F0895E894E9
:1004500009C097FB3EF490958095709561957F4F0C
:100460008F4F9F4F9923A9F0F92F96E9BB279395BA
:10047000F695879577956795B795F111F8CFFAF4CA
:10048000BB0F11F460FF1BC06F5F7F4F8F4F9F4FFB
:1004900016C0882311F096E911C0772321F09EE859
:1004A000872F762F05C0662371F096E8862F70E0BF
:1004B00060E02AF09A95660F771F881FDAF7880F99
:1004C0009695879597F9089557FD9058440F551FB5
:1004D00059F05F3F71F04795880F97FB991F61F0C6
:1004E0009F3F79F087950895121613061406551F3D
:1004F000F2CF4695F1DF08C0161617061806991FA9
:10050000F1CF86957105610508940895E894BB279D
:1005100066277727CB0197F908950E94A0020C94D3
:1005200011030E94030338F00E940A0320F0952370
:1005300011F00C94FA020C94000311240C9487021D
:100540000E94640270F3959FC1F3950F50E0551F10
:10055000629FF001729FBB27F00DB11D639FAA2718
:10056000F00DB11DAA1F649F6627B00DA11D661F67
:10057000829F2227B00DA11D621F739FB00DA11D88
:10058000621F839FA00D611D221F749F3327A00D42
:10059000611D231F849F600D211D822F762F6A2FDE
:1005A00011249F5750409AF0F1F088234AF0EE0F43
:1005B000FF1FBB1F661F771F881F91505040A9F770
:1005C0009E3F510580F00C94FA020C9487025F3F25
:1005D000E4F3983ED4F3869577956795B795F795AC
:1005E000E7959F5FC1F7FE2B880F911D9695879524
:1005F00097F9089597F99F6780E870E060E00895A3
:100600009FEF80EC089500240A941616170618062A
:100610000906089500240A94121613061406050606
:100620000895092E0394000C11F4882352F0BB0F97
:1006300040F4BF2B11F460FF04C06F5F7F4F8F4FFA
:100640009F4F0895A1E21A2EAA1BBB1BFD010DC0EE
:10065000AA1FBB1FEE1FFF1FA217B307E407F50772
:1006600020F0A21BB30BE40BF50B661F771F881F4E
:10067000991F1A9469F760957095809590959B01E4
:10068000AC01BD01CF010895A29FB001B39FC0018D
:10069000A39F700D811D1124911DB29F700D811DAE
:0A06A0001124911D0895F894FFCF76
:1006AA00014C616E7A616E646F2074726967676566
:1006BA00720A0054726967676572207265636962BB
:1006CA0069646F202D2D2D2D3E20004573706572B3
:1006DA00616E646F2070756C736F2064652062614F
:1006EA006A6164610A004C656374757261206465AD
:1006FA006C2073656E736F72207465726D696E61BA
:10070A0064610A00566F6C7665722061206C6565BB
:04071A00720A00005F
:00000001FF
