:100000000C9434000C9451000C9451000C94510049
:100010000C9451000C9451000C9451000C9451001C
:100020000C9451000C9451000C9451000C9451000C
:100030000C9451000C9451000C9451000C945100FC
:100040000C9451000C9451000C9451000C945100EC
:100050000C9451000C94CD000C9451000C94510060
:100060000C94F5000C94510011241FBECFEFD8E082
:10007000DEBFCDBF11E0A0E0B1E0EEEDF2E002C0E6
:1000800005900D92A439B107D9F721E0A4E9B1E0B8
:1000900001C01D92A639B207E1F70E949E000C94A0
:1000A0006D010C94000097B19F7C97B9880F8093E5
:1000B000BA0085E48093BC000895ECE7F0E010827C
:1000C0008081806480838081806280838081816080
:1000D0008083EAE7F0E010828081806880838081FD
:1000E0008860808380818360808380818064808356
:1000F00008958AB182608AB98AB18E7F8AB91092D6
:10010000C00088E98093C10086E08093C20087E642
:1001100090E09093C5008093C4000895F8948AB14C
:1001200084608AB98BB18B7F8BB90E945D0080E3BC
:100130000E9453000E947900789408950E948E00D6
:1001400080919501823529F489B1846089B9109232
:1001500095012FEF81EE94E0215080409040E1F72F
:1001600000C00000EDCF9091C00095FFFCCF8093C0
:10017000C60008950F931F93CF938C01C0E003C076
:100180000E94B300CF5FF801EC0FF11D8081811157
:10019000F7CFCF911F910F9108951F920F920FB635
:1001A0000F9211248F93EF93FF9380910001882386
:1001B00041F010920001EAE7F0E0808180648083E2
:1001C0000CC081E0809300018091790080939401BC
:1001D000EAE7F0E0808180648083FF91EF918F9166
:1001E0000F900FBE0F901F9018951F920F920FB691
:1001F0000F9211242F933F934F935F936F937F93AD
:100200008F939F93AF93BF93EF93FF938091B90028
:100210008C7F803A09F441C058F48037A1F018F47B
:10022000803689F042C08038B1F08039A1F03DC0FD
:10023000883BE9F018F4883AD1F037C0803C19F1D6
:10024000883C09F132C085EC8093BC0081E091E0EC
:100250000E94BA0031C08091BB008093950185EC6B
:100260008093BC008EE091E00E94BA0025C080918E
:1002700094018093BB0085EC8093BC0086E391E001
:100280000E94BA0019C0ECEBF0E0108285E4808394
:1002900085E591E00E94BA000FC085EC8093BC0018
:1002A0008DE691E00E94BA0007C085EC8093BC0007
:1002B0008CE891E00E94BA00FF91EF91BF91AF915D
:1002C0009F918F917F916F915F914F913F912F916E
:0E02D0000F900FBE0F901F901895F894FFCF5F
:1002DE000147656E6572616C2043616C6C00446110
:1002EE00746F20726563696269646F2047656E651D
:1002FE0072616C2043616C6C2C2041434B20656E07
:10030E00766961646F004461746F207472616E73FC
:10031E006D697469646F2C2041434B20726563696B
:10032E006269646F00556C74696D6F206461746FDF
:10033E00207472616E736D697469646F0053544FEB
:10034E0050206F207265706561746564205354414E
:10035E00525420726563696269646F0064656661F8
:04036E00756C740036
:00000001FF
