S00E0000736C617665322E73726563C9
S11300000C9434000C9451000C9451000C94510045
S11300100C940C010C9451000C9451000C9451005C
S11300200C9451000C9451000C9451000C94510008
S11300300C9451000C9451000C9451000C945100F8
S11300400C9451000C9451000C9451000C945100E8
S11300500C9451000C9451000C9451000C945100D8
S11300600C942B010C94510011241FBECFEFD8E047
S1130070DEBFCDBF11E0A0E0B1E0E4EFF2E002C0EA
S113008005900D92A437B107D9F721E0A4E7B1E0B8
S113009001C01D92A737B207E1F70E94C6000C9475
S11300A078010C94000097B19F7C97B9880F8093D6
S11300B0BA0085E48093BC00089588B18D7F88B927
S11300C085E38A95F1F7000088B1826088B985E3F9
S11300D08A95F1F7000088B18D7F88B908958AB1B7
S11300E082608AB98AB18E7F8AB91092C00088E989
S11300F08093C10086E08093C20087E690E09093ED
S1130100C5008093C4000895F8948AB184688AB9BC
S11301108BB18B778BB987B1826087B987B18E7FBA
S113012087B988B18D7F88B91092800082E080936E
S11301308100E8E6F0E0808182608083ECE6F0E014
S11301408081816080831092750180E30E94530056
S11301500E946F00789408959091C00095FFFCCFA1
S11301608093C60008950F931F93CF938C01C0E032
S113017003C00E94AC00CF5FF801EC0FF11D808139
S11301808111F7CFCF911F910F9108950E948400A0
S113019080917601823529F489B1846089B91092FD
S11301A076018091750181110DC080910001882331
S11301B049F0309907C00E945D0081E091E00E94FF
S11301C0B300E6CF80917501813049F483E191E079
S11301D00E94B3008BE291E00E94B300D9CF8091DA
S11301E075018230A9F686E491E00E94B300109272
S11301F000012FEF8DEE92E0215080409040E1F716
S113020000C000001092750181E08093000184E633
S113021091E00E94B300BCCF1F920F920FB60F92D1
S113022011248F93309B08C080917501811104C003
S113023081E08093750109C0309907C080917501F0
S1130240813019F482E0809375018F910F900FBE75
S11302500F901F9018951F920F920FB60F921124B2
S11302608F93EF93FF938091B9008C7F803A89F14B
S113027058F48037A1F018F4803689F02EC0803805
S113028091F0803981F029C0883BA9F018F4883AAC
S113029091F023C0803CB9F0883CA9F01EC085ECE5
S11302A08093BC001DC08091BB008093760185ECD7
S11302B08093BC0015C0809174018093BB0085ECD1
S11302C08093BC000DC0ECEBF0E0108285E48083E9
S11302D007C085EC8093BC0003C085EC8093BC0010
S11302E0FF91EF918F910F900FBE0F901F90189573
S10702F0F894FFCFAC
S11302F4014C616E7A616E646F207472696767651C
S1130304720A005472696767657220726563696270
S113031469646F202D2D2D2D3E2000457370657268
S1130324616E646F2070756C736F20646520626104
S11303346A6164610A004C65637475726120646562
S11303446C2073656E736F72207465726D696E616F
S113035464610A00566F6C7665722061206C656571
S1070364720A000015
S9030000FC
