:100000000C943B000C9458000C9458000C9458002D
:100010000C9458000C9458000C9458000C94580000
:100020000C9458000C9458000C9458000C945800F0
:100030000C9458000C9458000C9458000C945800E0
:100040000C9458000C94DC000C9401010C945800A2
:100050000C9458000C9458000C9458000C945800C0
:100060000C9458000C94580085018C0193019D015B
:10007000A701B101BB0111241FBECFEFD8E0DEBF45
:10008000CDBF11E0A0E0B1E0E8E0F5E002C00590EE
:100090000D92A831B107D9F721E0A8E1B1E001C084
:1000A0001D92AC32B207E1F70E947D000C948202EF
:1000B0000C940000F8940E941F0222E041E060E0EE
:1000C00081E00E9439018AB18C6F8AB98BB183704B
:1000D0008BB984B1836084B985B18C7F85B97894FC
:1000E000089595B19C7F282F2370922B95B99BB1D1
:1000F00093708C7F892B8BB908950E945A0081E6FA
:100100000E94C50180911901882309F110921901FB
:1001100020E00BC0822F90E0FC01EC5DFE4F3081AF
:10012000FC01E85DFE4F30832F5F243098F360E2DE
:1001300071E088E291E00E943A02809318018130D8
:1001400031F4809120010E94710010921B01809176
:100150001C01813091F480E091E00E94CE018091F9
:100160001E010E94E10187E091E00E94CE0182E63B
:100170000E94C50110921C0115C080911C018230A3
:1001800089F48FE091E00E94CE0180911D010E94D0
:10019000E10186E191E00E94CE0181E60E94C50165
:1001A00010921C012FEF80E792E021508040904098
:1001B000E1F700C00000A6CF1F920F920FB60F927A
:1001C00011248F9380911F01811109C08EB58093F6
:1001D0001E0181E080931F0180931C010CC080915F
:1001E0001F01813041F48EB580931D0110921F01D3
:1001F00082E080931C018F910F900FBE0F901F9093
:1002000018951F920F920FB60F9211248F93EF93B0
:10021000FF938091C60080931A018091190181118A
:1002200020C080911B01833068F4E0911B01F0E055
:1002300080911A01EC5DFE4F808380911B018F5FDE
:1002400080931B0180911B01833059F4E0911B01C5
:10025000F0E0EC5DFE4F108281E080931901109276
:100260001B01FF91EF918F910F900FBE0F901F9088
:100270001895813021F48CB580688CBD03C08CB595
:100280008F778CBD613021F48CB580628CBD03C04A
:100290008CB58F7D8CBD413069F48CB580618CBD8F
:1002A00084B18F7E84B984B18C6284B985B18B7F2F
:1002B00085B909C08CB58F7E8CBD84B1806184B94D
:1002C00084B1837D84B9413009F05BC023FF04C051
:1002D0008CB588608CBD03C08CB5877F8CBD24FF36
:1002E00004C08CB584608CBD03C08CB58B7F8CBD85
:1002F000E22FE7708E2F90E08730910508F041C023
:10030000FC01EC5CFF4F0C947C028DB581608DBDCF
:100310008CB58C7F8CBD35C08DB58E7F8DBD8CB579
:100320008C7F8CBD2EC08DB581608DBD8CB58D7FD1
:100330008CBD8CB581608CBD24C08DB58E7F8DBD8C
:100340008CB58D7F8CBD8CB581608CBD1AC08DB590
:1003500081608DBD8CB58E7F8CBD8CB582608CBD6F
:1003600010C08DB58E7F8DBD8CB58E7F8CBD8CB54C
:1003700082608CBD06C08DB58E7F8DBD8CB58360CF
:100380008CBD8CB580648CBD08958EBD0895909110
:10039000C00095FFFCCF8093C60008950F931F9374
:1003A000CF938C01C0E003C00E94C701CF5FF8016A
:1003B000EC0FF11D80818111F7CFCF911F910F912B
:1003C00008951F93CF93DF9300D000D0CDB7DEB751
:1003D00081111DC080E30E94C70129C0E1E0F0E067
:1003E000EC0FFD1FE10FF11D9DEC899F912D112454
:1003F000969596959695392F330F232F220F220F1E
:10040000230F821B805D8083892F1F5F01C010E056
:100410008111E4CF0AC01150E1E0F0E0EC0FFD1FC4
:10042000E10FF11D80810E94C7011111F4CF0F90DF
:100430000F900F900F90DF91CF911F9108958AB187
:1004400082608AB98AB18E7F8AB91092C000E1ECCD
:10045000F0E01082808188698083E2ECF0E0108215
:1004600080818660808387E690E09093C5008093CA
:10047000C4000895FC01208180ED820F833090F547
:10048000918180ED890F8A3078F5E28180ED8E0FC1
:100490008A3060F5223331F4963350F5953311F4F8
:1004A000E63340F530E02053310984E6829FA00115
:1004B000839F500D1124892F90E0C0979C01220F3B
:1004C000331F880F991F880F991F880F991F820F5C
:1004D000931F840F951F8E0F911DC097FB01808382
:1004E00081E0089580E0089580E0089580E0089517
:1004F00080E0089580E00895EE0FFF1F0590F491CD
:08050000E02D0994F894FFCFEF
:10050800504F54313A200020202020202020005035
:080518004F54323A20000A00A2
:00000001FF
