:100000000C9434000C9451000C9451000C94510049
:100010000C9451000C9451000C9451000C9451001C
:100020000C9451000C9451000C9451000C9451000C
:100030000C9451000C9451000C9451000C945100FC
:100040000C9451000C9451000C9451000C945100EC
:100050000C9451000C9451000C9451000C945100DC
:100060000C9451000C94510011241FBECFEFD8E026
:10007000DEBFCDBF11E0A0E0B1E0E6E9F4E002C0F0
:1000800005900D92A637B107D9F721E0A6E7B1E0B8
:1000900001C01D92A837B207E1F70E94DE010C945F
:1000A00049020C940000CF93C82F9A01AB0187B18D
:1000B0008F7C87B9C43079F018F4C13031F023C097
:1000C000C03191F0C034C9F01EC0E9EBF0E080818E
:1000D0008C7F80831DC0E9EBF0E080818D7F808381
:1000E00080818160808314C0E9EBF0E080818E7FA5
:1000F00080838081826080830BC0E9EBF0E08081A7
:100100008360808305C0E9EBF0E080818C7F808391
:1001100060E074E284EF90E00E942702CA01B90116
:1001200060517109810991092C2F30E0220F331F92
:10013000032E000C440B550B0E9427022093B8009D
:10014000ECEBF0E0808184608083CF91089584EAB5
:100150008093BC008091BC008823E4F79091B900A3
:10016000987F81E0983009F080E0089584EA8093D8
:10017000BC008091BC008823E4F79091B900987F7F
:1001800081E0903109F080E0089584E98093BC001B
:100190008091BC0084FDFCCF08958093BB0084E86F
:1001A0008093BC008091BC008823E4F78091B90063
:1001B000887F883121F0883219F481E0089581E048
:1001C0000895FC01662321F084EC8093BC0003C0F9
:1001D00084E88093BC009091BC009923E4F790914F
:1001E000B900987F662311F0903549F4662311F029
:1001F000983539F48091BB00808381E0089580E0D8
:10020000089580E0089595B19C7F282F2370922B4C
:1002100095B99BB193708C7F892B8BB9089595B15B
:100220009B7F95B90E94030185B1886085B98FE9EC
:100230009FE00197F1F700C0000085B1877F85B985
:100240008FE99FE00197F1F700C00000089585B1A4
:100250008B7F85B985B1877F85B92FEF89EF90E0D6
:10026000215080409040E1F700C0000080E30E94F0
:100270000F018FE19EE40197F1F700C0000080E3D9
:100280000E940F018FE19EE40197F1F700C000008A
:1002900080E30E940F018FE39CE90197F1F700C012
:1002A000000088E30E940F018CE00E940F0181E0B2
:1002B0000E940F0186E00E940F01089581E00E94D4
:1002C0000F010895F8948AB18C6F8AB98BB183704D
:1002D0008BB984B18F6084B985B1807F85B90E9464
:1002E000270140EA56E861E070E081E00E94530097
:1002F0000E940C020E945E01789408950F931F9350
:10030000CF93DF93C82F062FD42F122F80E091E0D8
:100310000E94F9010E94A700882309F44AC08C2F8B
:100320000E94CD00811107C00E94C50088E191E0C4
:100330000E94F9013EC08D2F0E94CD00811107C09F
:100340000E94C5008AE291E00E94F90132C00E9439
:10035000B600811107C00E94C5008BE391E00E94A6
:10036000F90127C0802F0E94CD00811107C00E9493
:10037000C5008CE491E00E94F9011BC0112319F023
:10038000113049F010C061E087E791E00E94E10080
:100390000E94C5000AC061E086E791E00E94E1008A
:1003A0000E94C50002C00E94C5008FE591E00E9436
:1003B000F901DF91CF911F910F9108950E94620181
:1003C0000E945E0120E042E561E680E60E947E0137
:1003D0002FEF80E792E0215080409040E1F700C08D
:1003E0000000F0CF9091C00095FFFCCF8093C60035
:1003F00008950F931F93CF938C01C0E003C00E9418
:10040000F201CF5FF801EC0FF11D80818111F7CF70
:10041000CF911F910F9108958AB182608AB98AB1F4
:100420008E7F8AB91092C000E1ECF0E010828081EA
:1004300088698083E2ECF0E01082808186608083AE
:1004400087E690E09093C5008093C4000895A1E2F0
:100450001A2EAA1BBB1BFD010DC0AA1FBB1FEE1F3E
:10046000FF1FA217B307E407F50720F0A21BB30B89
:10047000E40BF50B661F771F881F991F1A9469F705
:1004800060957095809590959B01AC01BD01CF0161
:060490000895F894FFCF6F
:10049600496E6963696F20646520636F6D756E6967
:1004A600636163696F6E0A0046616C6C6F20616CF4
:1004B60020696E69636961720A0046616C6C6F201F
:1004C600616C20656E766961720A0046616C6C6FBC
:1004D60020616C207265707469720A0066616C6CCA
:1004E6006F20616C2065736372696269720A004EDF
:1004F6006F206861792066616C6C6F0A0053313A2F
:060506000053323A000030
:00000001FF
