:100000000C9434000C9451000C9451000C94510049
:100010000C9451000C9451000C9451000C9451001C
:100020000C9451000C9451000C9451000C9451000C
:100030000C9451000C9451000C9451000C945100FC
:100040000C9451000C9451000C9451000C945100EC
:100050000C9451000C9451000C9451000C945100DC
:100060000C9451000C94510011241FBECFEFD8E026
:10007000DEBFCDBF11E0A0E0B1E0ECE0FCE002C0EB
:1000800005900D92A23EB107D9F721E0A2EEB1E0B2
:1000900001C01D92A43EB207E1F70E9479030C94BF
:1000A00004060C940000CF93C82F9A01AB0187B1CE
:1000B0008F7C87B9C43079F018F4C13031F023C097
:1000C000C03191F0C034C9F01EC0E9EBF0E080818E
:1000D0008C7F80831DC0E9EBF0E080818D7F808381
:1000E00080818160808314C0E9EBF0E080818E7FA5
:1000F00080838081826080830BC0E9EBF0E08081A7
:100100008360808305C0E9EBF0E080818C7F808391
:1001100060E074E284EF90E00E94D305CA01B90167
:1001200060517109810991092C2F30E0220F331F92
:10013000032E000C440B550B0E94D3052093B800EE
:10014000ECEBF0E0808184608083CF91089584EAB5
:100150008093BC008091BC008823E4F780E191E0AB
:100160000E949C039091B900987F81E0983009F03B
:1001700080E0089584EA8093BC008091BC008823CD
:10018000E4F79091B900987F81E0903109F080E028
:10019000089584E98093BC0004C087E291E00E9446
:1001A0009C038091BC0084FDF8CF08958093BB0030
:1001B00084E88093BC008091BC008823E4F78091A0
:1001C000B900887F883121F0883219F481E00895E0
:1001D00081E00895FC01662321F084EC8093BC004B
:1001E00003C084E88093BC009091BC009923E4F79D
:1001F0009091B900987F662311F0903549F4611110
:1002000002C0983539F48091BB00808381E0089565
:1002100080E0089580E0089595B19C7F282F237099
:10022000922B95B99BB193708C7F892B8BB90895D4
:1002300095B19B7F95B90E940C0185B1886085B905
:100240008FE99FE00197F1F700C0000085B1877F3B
:1002500085B98FE99FE00197F1F700C0000008958C
:1002600085B18B7F85B985B1877F85B92FEF89EF00
:1002700090E0215080409040E1F700C0000080E312
:100280000E9418018FE19EE40197F1F700C0000081
:1002900080E30E9418018FE19EE40197F1F700C00E
:1002A000000080E30E9418018FE39CE90197F1F7B9
:1002B00000C0000088E30E9418018CE00E94180131
:1002C00081E00E94180186E00E94180108958111C2
:1002D00005C080E8860F0E9418010895813021F43E
:1002E00080EC860F0E941801089581E00E94180199
:1002F000089595B1946095B90E940C0185B188600C
:1003000085B98FE99FE00197F1F700C0000085B142
:10031000877F85B98FE99FE00197F1F700C0000062
:1003200008950F931F93CF93DF938C01C0E0D0E02B
:1003300003C00E9479012196F801EC0FFD1F808116
:100340008111F7CFDF91CF911F910F910895F8940C
:100350008AB18C6F8AB98BB183708BB984B18F608D
:1003600084B985B1807F85B90E94300140EA56E8A2
:1003700061E070E081E00E9453000E94AF030E94A0
:100380007501789408950F931F93CF93DF93C82F2F
:10039000062FD42F122F83E491E00E949C030E9429
:1003A000A700882309F451C08C2F0E94D600811128
:1003B00007C00E94C9008BE591E00E949C0345C0E4
:1003C0008D2F0E94D600811107C00E94C9008DE6C2
:1003D00091E00E949C0339C00E94BA00811107C0BD
:1003E0000E94C9008EE791E00E949C032EC0802FDE
:1003F0000E94D600811107C00E94C9008FE891E0D9
:100400000E949C0322C082EA91E00E949C03112377
:1004100019F0113059F013C060E083EE91E00E94B2
:10042000EA0082EB91E00E949C0309C060E082EE4A
:1004300091E00E94EA0082EB91E00E949C030E94FE
:10044000C90082EC91E00E949C03DF91CF911F9143
:100450000F910895EF92FF920F931F93CF93DF9325
:10046000EC01262F30E0A0ECB1E00E94F5052FEF63
:1004700030E040E050E00E94D305A9014E5F5F4F9D
:10048000433C81E0580710F042EC51E09A01369568
:10049000279536952795ABE7B4E10E94F5057C01D9
:1004A000F694E7949A01ADECBCEC0E94F5058C0142
:1004B00016950795169507951695079598010E942C
:1004C000F505FC01F695E795F695E795F695E79520
:1004D000CF01880F991FEE0FFF1FEE0FFF1FEE0FCA
:1004E000FF1FE80FF91FC8018E1B9F0BFC0198012D
:1004F000220F331FC801880F991F880F991F880F7B
:10050000991F820F931F481B590B80E38E0D888320
:10051000E05DE983405D4A8383E68B838DE68C83CF
:100520001D82DF91CF911F910F91FF90EF90089561
:100530008F929F92AF92BF92CF92DF92EF92FF92F3
:100540000F931F93CF93DF93EC0170E080E090E076
:100550000E94DA0420E030E040EA50E40E946605A0
:1005600020E030E04FE753E40E9437044B015C0188
:100570000E94A9046B017C018B0180E090E00E9445
:10058000D8049B01AC01C501B4010E94CA0320E05C
:1005900030E048EC52E40E9466050E94A9044B0139
:1005A0005C010A30110540F580E38C0D88838EE2F2
:1005B00089839401ADECBCEC0E94F505AC01569525
:1005C0004795569547955695479580E3840F8A83BE
:1005D000CA01880F991F440F551F440F551F440F20
:1005E000551F480F591FC401841B950B805D8B83D9
:1005F00086E58C831D8241C09601ADECBCEC0E9467
:10060000F505AC01569547955695479556954795EE
:1006100080E3840F8883CA01880F991F440F551FF8
:10062000440F551F440F551F480F591FC601841B07
:10063000950B805D89838EE28A8394010E94F50583
:10064000AC0156954795569547955695479580E345
:10065000840F8B83CA01880F991F440F551F440FC5
:10066000551F440F551F480F591FC401841B950B7C
:10067000805D8C8386E58D831E82DF91CF911F91F3
:100680000F91FF90EF90DF90CF90BF90AF909F9031
:100690008F9008950E94750160E080E00E946701DC
:1006A0008AED91E00E94910166E080E00E9467017E
:1006B0008EED91E00E9491016091E30188E091E06C
:1006C0000E942A026091E20180E091E00E9498027B
:1006D00060E081E00E94670188E091E00E94910162
:1006E00066E081E00E94670180E091E00E94910154
:1006F00008950E94A7010E94750120E042E561E68D
:1007000080E60E94C30121E047E561E880E80E949D
:10071000C3010E944A032FEF81EE94E021508040F4
:100720009040E1F700C00000E8CF9091C00095FF35
:10073000FCCF8093C60008950F931F93CF938C0135
:10074000C0E003C00E949503CF5FF801EC0FF11DDC
:1007500080818111F7CFCF911F910F9108958AB1B8
:1007600082608AB98AB18E7F8AB91092C000E1ECAA
:10077000F0E01082808188698083E2ECF0E01082F2
:1007800080818660808387E690E09093C5008093A7
:10079000C40008955058BB27AA270E94E2030C9476
:1007A0002C050E941E0538F00E94250520F039F422
:1007B0009F3F19F426F40C941B050EF4E095E7FB1B
:1007C0000C941505E92F0E943D0558F3BA176207EE
:1007D00073078407950720F079F4A6F50C945F055C
:1007E0000EF4E0950B2EBA2FA02D0B01B90190014C
:1007F0000C01CA01A0011124FF27591B99F0593F90
:1008000050F4503E68F11A16F040A22F232F342FD7
:100810004427585FF3CF469537952795A795F04025
:100820005395C9F77EF41F16BA0B620B730B840B3A
:10083000BAF09150A1F0FF0FBB1F661F771F881FF2
:10084000C2F70EC0BA0F621F731F841F48F487954A
:1008500077956795B795F7959E3F08F0B0CF93953C
:10086000880F08F09927EE0F9795879508950E94B5
:100870004B040C942C050E94250558F00E941E057F
:1008800040F029F45F3F29F00C94150551110C94A8
:1008900060050C941B050E943D0568F39923B1F394
:1008A000552391F3951B550BBB27AA276217730796
:1008B000840738F09F5F5F4F220F331F441FAA1F2A
:1008C000A9F335D00E2E3AF0E0E832D091505040E6
:1008D000E695001CCAF72BD0FE2F29D0660F771F94
:1008E000881FBB1F261737074807AB07B0E809F07A
:1008F000BB0B802DBF01FF2793585F4F3AF09E3FFF
:10090000510578F00C9415050C9460055F3FE4F3F5
:10091000983ED4F3869577956795B795F7959F5F41
:10092000C9F7880F911D9695879597F90895E1E08D
:10093000660F771F881FBB1F621773078407BA07EC
:1009400020F0621B730B840BBA0BEE1F88F7E09547
:1009500008950E94450588F09F5798F0B92F992770
:10096000B751B0F0E1F0660F771F881F991F1AF09A
:10097000BA95C9F714C0B13091F00E945F05B1E09B
:1009800008950C945F05672F782F8827B85F39F09A
:10099000B93FCCF3869577956795B395D9F73EF433
:1009A00090958095709561957F4F8F4F9F4F0895DB
:1009B000E89409C097FB3EF49095809570956195F9
:1009C0007F4F8F4F9F4F9923A9F0F92F96E9BB27AF
:1009D0009395F695879577956795B795F111F8CF2B
:1009E000FAF4BB0F11F460FF1BC06F5F7F4F8F4F96
:1009F0009F4F16C0882311F096E911C0772321F08C
:100A00009EE8872F762F05C0662371F096E8862F23
:100A100070E060E02AF09A95660F771F881FDAF77A
:100A2000880F9695879597F9089597F99F6780E8BD
:100A300070E060E008959FEF80EC089500240A9430
:100A40001616170618060906089500240A941216A9
:100A50001306140605060895092E0394000C11F4DC
:100A6000882352F0BB0F40F4BF2B11F460FF04C089
:100A70006F5F7F4F8F4F9F4F089557FD9058440FE2
:100A8000551F59F05F3F71F04795880F97FB991FED
:100A900061F09F3F79F087950895121613061406AA
:100AA000551FF2CF4695F1DF08C016161706180637
:100AB000991FF1CF86957105610508940895E89412
:100AC000BB2766277727CB0197F908950E94790500
:100AD0000C942C050E941E0538F00E94250520F07C
:100AE000952311F00C9415050C941B0511240C94FE
:100AF00060050E943D0570F3959FC1F3950F50E08E
:100B0000551F629FF001729FBB27F00DB11D639FBF
:100B1000AA27F00DB11DAA1F649F6627B00DA11D65
:100B2000661F829F2227B00DA11D621F739FB00D0B
:100B3000A11D621F839FA00D611D221F749F33277B
:100B4000A00D611D231F849F600D211D822F762F14
:100B50006A2F11249F5750409AF0F1F088234AF0F1
:100B6000EE0FFF1FBB1F661F771F881F915050405D
:100B7000A9F79E3F510580F00C9415050C94600573
:100B80005F3FE4F3983ED4F3869577956795B795E4
:100B9000F795E7959F5FC1F7FE2B880F911D9695FE
:100BA000879597F90895A1E21A2EAA1BBB1BFD0198
:100BB0000DC0AA1FBB1FEE1FFF1FA217B307E4073C
:100BC000F50720F0A21BB30BE40BF50B661F771F94
:100BD000881F991F1A9469F7609570958095909574
:100BE0009B01AC01BD01CF010895A29FB001B39F4D
:100BF000C001A39F700D811D1124911DB29F700D26
:0C0C0000811D1124911D0895F894FFCF70
:100C0C003030303000000000303030300000000058
:100C1C004573706572616E646F206120717565201B
:100C2C00696E69636965004573706572616E646FA6
:100C3C002061206C696D7069617220656C2062693D
:100C4C00740A00496E6963696F20646520636F6D77
:100C5C00756E69636163696F6E0A0046616C6C6FD7
:100C6C0020616C20696E69636961720A0046616C6F
:100C7C006C6F20616C20656E766961720A0046614A
:100C8C006C6C6F20616C207265707469720A0066FE
:100C9C00616C6C6F20616C20657363726962697240
:100CAC000A004573706572616E646F204461746FE5
:100CBC000A004461746F2072656369626964696FCC
:100CCC000A00636F6D756E6963616369F36E2074FE
:100CDC0065726D696E6164610A0053313A0053327A
:020CEC003A00CC
:00000001FF
