S00E0000736C617665322E73726563C9
S11300000C9434000C9451000C9451000C94510045
S11300100C9451000C9451000C9451000C94510018
S11300200C9451000C9451000C9451000C94510008
S11300300C9451000C9451000C9404010C94510044
S11300400C9451000C9451000C9451000C945100E8
S11300500C9451000C942A010C9451000C945100FE
S11300600C9452010C94510011241FBECFEFD8E020
S1130070DEBFCDBF11E0A0E0B1E0E8E4F4E002C0EF
S113008005900D92AA30B107D9F721E0AAE0B1E0BA
S113009001C01D92AD31B207E1F70E94B3000C9488
S11300A022020C94000097B19F7C97B9880F80932B
S11300B0BA0085E48093BC00089582E084BD93E097
S11300C095BD99EF97BD80936E000895ECE7F0E03D
S11300D010828081806480838081806280838081BB
S11300E086608083EAE7F0E0108280818068808304
S11300F08081886080838081836080838081806444
S1130100808308958AB182608AB98AB18E7F8AB960
S11301101092C00088E98093C10086E08093C200F9
S113012087E690E09093C5008093C4000895F89406
S113013087B1816087B988B18E7F88B90E946600D3
S113014080E40E94530084E191E00E94AC016AE0E3
S113015070E084E191E00E94BB010E945D000E9476
S11301608200789408950E94970080910B01823058
S113017031F480910D018093000110920B01809164
S11301800D01873511F0833461F486B1816086B93D
S113019080910D01833419F481E080930B01109256
S11301A00D0190910C0180910001891778F08091E4
S11301B00A0181110BC040E054E060E070E084E18A
S11301C091E00E94C80181E080930A0190910C01A2
S11301D080910001981770F080910A01813051F4E8
S11301E040E05CEF6FEF7FEF84E191E00E94C80193
S11301F010920A012FEF81EE94E02150804090404C
S1130200E1F700C00000B1CF1F920F920FB60F921A
S113021011242F933F934F935F936F937F938F9307
S11302209F93AF93BF93EF93FF9384E191E00E9478
S1130230CE01FF91EF91BF91AF919F918F917F91EB
S11302406F915F914F913F912F910F900FBE0F903F
S11302501F9018951F920F920FB60F9211248F932F
S1130260EF93FF9380910101882341F010920101E3
S1130270EAE7F0E08081806480830CC081E08093B1
S113028001018091790080930C01EAE7F0E080811C
S113029080648083FF91EF918F910F900FBE0F9038
S11302A01F9018951F920F920FB60F9211248F93DF
S11302B0EF93FF938091B9008C7F803A89F158F4D1
S11302C08037A1F018F4803689F02EC0803891F080
S11302D0803981F029C0883BA9F018F4883A91F05C
S11302E023C0803CB9F0883CA9F01EC085EC809303
S11302F0BC001DC08091BB0080930D0185EC8093F0
S1130300BC0015C080910C018093BB0085EC8093E8
S1130310BC000DC0ECEBF0E0108285E4808307C0E4
S113032085EC8093BC0003C085EC8093BC00809175
S11303300B01813019F482E080930B01FF91EF915E
S11303408F910F900FBE0F901F90189595B1907FCD
S11303508F70892B85B90895FC0184B18F6084B9AD
S113036085B1807F85B91082118212821382148232
S1130370108617820895FC0120E0762F7295707F15
S113038080E69AEE622F0E940E02768365830895BA
S1130390FC0140835183628373830895FC0180814F
S11303A09181A281B3810097A105B105B1F12781A3
S11303B030852F5F3F4F308727834581568124172F
S11303C0350758F110861782181619061A061B06E7
S11303D074F424812F5F2483283008F01482019759
S11303E0A109B10980839183A283B3830FC02481BF
S11303F0211103C027E0248302C0215024830196E5
S1130400A11DB11D80839183A283B383E481F0E0B5
S1130410EE5FFE4F80810E94A6010895AA1BBB1BBC
S113042051E107C0AA1FBB1FA617B70710F0A61BF0
S1130430B70B881F991F5A95A9F780959095BC0111
S10B0440CD010895F894FFCFEB
S10D04487F0101030206040C0809F9
S9030000FC
